:040000000FEF7AF094
:10F32B0078C580C5A01200FDD7C584C5A41200FD09
:10F33B00D7026E02C0C9FFC7B0FED7C5CF01F01F01
:10F34B000E0116D8A4FAD7C7A41200F7D7036E96EE
:10F35B00EC79F028509EEC79F0000E9EEC79F003DE
:10F36B00509EEC79F09AEC79F01200380E016E0D8C
:10F37B000E026E000E046E000E036E020E066E0081
:10F38B000E056EDDEC79F0120001500302F3CF0590
:10F39B00F0F4CF06F001500402F35006260250039E
:10F3AB0002F350062605C001F006C002F012000160
:10F3BB00C007F002C008F008D007C0D9FF08C0DAB8
:10F3CB00FF03C0DFFF074A082A0506D8A00606057B
:10F3DB0028F3E10628D8B41200EFD7000E276E00F1
:10F3EB000E266E89EC7AF03C0E61EC7BF0BBEC796F
:10F3FB00F0F10E176EFF0E186E000E1A6E000E193E
:10F40B006E000E1C6E000E1B6EC6EC7AF058EC7A7A
:10F41B00F0FFD73A0EF66EF80EF76E000EF86E0B85
:10F42B00EE38F014EE00F00900F5CFEEFFE550E1F9
:10F43B0050FAE1E250F8E12B0EF66EF30EF76E0088
:10F44B000EF86E0900F5CF28F0000EF86E0001F3F0
:10F45B00EF79F01A0E126E800E116E280EC66E002A
:10F46B000EC56E000E016E900E026ED00E036E0373
:10F47B000E046E11C00FF012C010F0D8900F3610A2
:10F48B0036D8900F3610360FC005F010C006F007B7
:10F49B006A086AB7EC7BF00104C86E000EC76E9465
:10F4AB008694881200210EACEC79F0000EACEC794E
:10F4BB00F07F0EACEC79F0220EACEC79F0000EACD8
:10F4CB00EC79F0030EACEC79F096EC79F028509EC9
:10F4DB00EC79F0400E9EEC79F0000E056E000E04F8
:10F4EB006E020E055CD8B00CD0380E0424D96E0D0C
:10F4FB000E0520DA6EDF509EEC79F0044A052AF0F7
:10F50B00D79AEC79F01200D388D38AD38C9B8CF2E8
:10F51B009E000E0F01386F000E396F000E3A6F0010
:10F52B000E3B6F000E3C6F000E926E000E936E0042
:10F53B000E946E000E956E000E966E000E806E0091
:10F54B000E816E000E826E000E836E000E846E00B6
:10F55B000E896E000E8A6E000E8B6E000E8C6E0086
:10F56B000E8D6E94869488090E026E1E0E016EE44B
:10F57B000EE82EFED7012EFCD7022EFAD700D012A2
:10F58B0000000E246E000E236E235017241D6E24D4
:10F59B005018201E6E1DC0F6FF1EC0F7FF0800F5A9
:10F5AB00CF25F0234A242A19C021F01AC022F01BC0
:10F5BB00C01FF01CC020F028D021C007F022C008CB
:10F5CB00F01FC009F020C00AF025500EEC7BF02292
:10F5DB00BE08D0225004E17B0E215CD8A002D01FC4
:10F5EB004A202A050E2126000E2222235017241D05
:10F5FB006E245018201E6E1DC0F6FF1EC0F7FF08AC
:10F60B0000F5CF25F0234A242A2550D8B41200D474
:10F61B00D7156E070E09140F6E106AE00E15240134
:10F62B006E026AFF0E0222000E046E050E036ECAF6
:10F63B00EC79F001C011F002C012F00FC00BF0100A
:10F64B00C00CF00B1E0C1E0B4A0C2A09500B260A81
:10F65B00500C220B3A0C3AF00E0C160B500F0B0CF5
:10F66B0012F00E0B1607500B24136E08500C2014BF
:10F67B006E000E166E040E166401D0120016501199
:10F68B00240B6E000E12200C6E3B0E0B24F66EFC40
:10F69B000E0C20F76E165013240D6E000E14200E58
:10F6AB006E380E0D24D96E0D0E0E20DA6E0800F595
:10F6BB00CFDFFF162ADFD7136E13501324286E2FBC
:10F6CB00EC7AF0050EE82EFED700F0AE0EACEC791E
:10F6DB00F0D50EACEC79F0800EACEC79F0A80EAC5A
:10F6EB00EC79F01F0EACEC79F0D30EACEC79F000AA
:10F6FB000EACEC79F0400EACEC79F08D0EACEC79F5
:10F70B00F0AF0EACEC79F0200EACEC79F0000EAC57
:10F71B00EC79F0A10EACEC79F0C80EACEC79F0DA28
:10F72B000EACEC79F0020EACEC79F0810EACEC790E
:10F73B00F08F0EACEC79F0D90EACEC79F0F10EAC9D
:10F74B00EC79F0DB0EACEC79F0400EACEC79F0A47C
:10F75B000EACEC79F0A60EACEC79F0AF0EACEC790C
:10F76B00F01200000E0A6E08AE0AD0081E071E0625
:10F77B001E056C000E062207220822010E0A6E04DB
:10F78B00AE0AD0041E031E021E016C000E022203E1
:10F79B00220422010E0A1A000E0B6E000E0C6E00D4
:10F7AB000E0D6E000E0E6E0550061007100810D8C9
:10F7BB00B42AD0010E096E06D0D89005360636074E
:10F7CB00360836092A08AEF8D7D8900B360C360D0A
:10F7DB00360E360550015C06500258075003580888
:10F7EB00500458D8A009D00550015E0650025A07A4
:10F7FB0050035A0850045A0B80D89008320732062F
:10F80B00320532092EE1D70A50D8B408D00E1E0D9E
:10F81B001E0C1E0B6C000E0C220D220E220BC001B7
:10F82B00F00CC002F00DC003F00EC004F01200008B
:10F83B000000000080C0E0F0F0F8F8FCFCFCFCFCE1
:10F84B00FCFCFCFCF8F8F0E080000000000000007D
:10F85B00000000008080000000000000008080009D
:10F86B00000000000000000000000000000000008D
:10F87B00000000000000000000000000000000007D
:10F88B00000000000000000000000000000000006D
:10F89B00000000000000000000000000000000005D
:10F8AB00000000000000000000000000000000004D
:10F8BB0000F0FEFFFF7F7FFFC781000001070F3FB6
:10F8CB00FFFFC701000001071F3EFCF0C0800000D6
:10F8DB000000FEFFFF7FFFFCF080E0F8FF7FFFFFE3
:10F8EB00FE0000FCFC00F0F8FC3C3C3C3C3C3C3893
:10F8FB0000FCFCFC9C9C9C9CFCFCF800F0F8FC1CA9
:10F90B001C1C3CFCF8F000F8FC3C3C3C3C3C3C3CFC
:10F91B0000FCFCFCC0C0C0C0FCFCFC00FCFCF80004
:10F92B00FCFCFC1C1C1C1CFCF8F000000000000084
:10F93B00000F0703000080C1F7FFFEF8F0C0800046
:10F94B000081C7FFFEF8F0C080000001070F060022
:10F95B0000003F3F3F0000070F1F0F0701001F3F35
:10F96B003F00003F3F000F1F3F3C3C3C3C3C3C1CDE
:10F97B00003F3F1F070707073F3F1C000F1F3F3C80
:10F98B003C3C3C3F1F0F001F3F3C3C3C3C3C3C3C49
:10F99B00001F3F3F030303033F3F1F003F3F1F0079
:10F9AB003F3F1F0707070707070100000000000084
:10F9BB00000000000002070F1F1F1F3F3F3F3F3E8D
:10F9CB003E3F3F3F3F1F1F0F0F0600000000000090
:10F9DB00000000000000000000000000000000001C
:10F9EB00000000000000000000000000000000000C
:10F9FB0000000000000000000000000000000000FC
:10FA0B0000000000000000000000000000000000EB
:10FA1B0000000000000000000000000000000000DB
:10FA2B0000000000000000000000000000000000CB
:10FA3B000000000080C0E0F0F0F8F8FCFCFCFCFCDF
:10FA4B00FCFCFCFCF8F8F0E080000000000000007B
:10FA5B00000000008080000000000000008080009B
:10FA6B00000000000000000000000000000000008B
:10FA7B00000000000000000000000000000000007B
:10FA8B00000000000000000000000000000000006B
:10FA9B00000000000000000000000000000000005B
:10FAAB00000000000000000000000000000000004B
:10FABB0000F0FEFFFF7F7FFFC781000001070F3FB4
:10FACB00FFFFC701000001071F3EFCF0C0800000D4
:10FADB000000FEFFFF7FFFFCF080E0F8FF7FFFFFE1
:10FAEB00FE0000FCFC00F0F8FC3C3C3C3C3C3C3891
:10FAFB0000FCFCFC9C9C9C9CFCFCF800F0F8FC1CA7
:10FB0B001C1C3CFCF8F000F8FC3C3C3C3C3C3C3CFA
:10FB1B0000FCFCFCC0C0C0C0FCFCFC00FCFCF80002
:10FB2B00FCFCFC1C1C1C1CFCF8F000000000000082
:10FB3B00000F0703000080C1F7FFFEF8F0C0800044
:10FB4B000081C7FFFEF8F0C080000001070F060020
:10FB5B0000003F3F3F0000070F1F0F0701001F3F33
:10FB6B003F00003F3F000F1F3F3C3C3C3C3C3C1CDC
:10FB7B00003F3F1F070707073F3F1C000F1F3F3C7E
:10FB8B003C3C3C3F1F0F001F3F3C3C3C3C3C3C3C47
:10FB9B00001F3F3F030303033F3F1F003F3F1F0077
:10FBAB003F3F1F0707070707070100000000000082
:10FBBB00000000000002070F1F1F1F3F3F3F3F3E8B
:10FBCB003E3F3F3F3F1F1F0F0F060000000000008E
:10FBDB00000000000000000000000000000000001A
:10FBEB00000000000000000000000000000000000A
:10FBFB0000000000000000000000000000000000FA
:10FC0B0000000000000000000000000000000000E9
:10FC1B0000000000000000000000000000000000D9
:10FC2B0000000000000000000000000000000000C9
:10FC3B00000000000000005F000000070007001438
:10FC4B007F147F14242A7F2A1223130864623649F7
:10FC5B005620500008070300001C224100004122DF
:10FC6B001C002A1C7F1C2A08083E08080000703064
:10FC7B000008080808080000606000201008040253
:10FC8B003E5149453E00427F400072494949462159
:10FC9B0041494D331814127F1027454545393C4ACD
:10FCAB0049493141211109073649494936464949E4
:10FCBB00291E00001400000040340000000814222C
:10FCCB00411414141414004122140802015909069A
:10FCDB003E415D594E7C1211127C7F494949363E9B
:10FCEB00414141227F4141413E7F494949417F0981
:10FCFB000909013E414151737F0808087F00417F8C
:10FD0B0041002040413F017F081422417F40404089
:10FD1B00407F021C027F7F0408107F3E4141413E21
:10FD2B007F090909063E4151215E7F0919294626A3
:10FD3B004949493203017F01033F4040403F1F20A7
:10FD4B0040201F3F4038403F63140814630304787E
:10FD5B0004036159494D43007F414141020408109E
:10FD6B0020004141417F04020102044040404040D9
:10FD7B00000307080020545438407F284444383887
:10FD8B0044444428384444287F38545454180008B9
:10FD9B007E09020C52524A3C7F0804047800447DD1
:10FDAB0040002040403D007F1028440000417F4030
:10FDBB00007C047804787C08040478384444443884
:10FDCB007C18242418182424187C7C080404084864
:10FDDB005454542404043F44243C4040207C1C20B5
:10FDEB0040201C3C4030403C44281028444C505090
:10FDFB00503C4464544C44000836410000007700EA
:10FE0B00000041360800020102040200000000005D
:10FE1B0000005F00000007000700147F147F14240C
:10FE2B002A7F2A1223130864623649562050000891
:10FE3B00070300001C2241000041221C002A1C7FEA
:10FE4B001C2A08083E080800007030000808080843
:10FE5B0008000060600020100804023E5149453E36
:10FE6B0000427F400072494949462141494D3318B0
:10FE7B0014127F1027454545393C4A4949314121E8
:10FE8B001109073649494936464949291E000014CC
:10FE9B000000004034000000081422411414141414
:10FEAB0014004122140802015909063E415D594EC6
:10FEBB007C1211127C7F494949363E414141227FD8
:10FECB004141413E7F494949417F090909013E4171
:10FEDB004151737F0808087F00417F41002040415A
:10FEEB003F017F081422417F404040407F021C02AB
:10FEFB007F7F0408107F3E4141413E7F090909067F
:10FF0B003E4151215E7F0919294626494949320351
:10FF1B00017F01033F4040403F1F2040201F3F40D7
:10FF2B0038403F6314081463030478040361594990
:10FF3B004D43007F414141020408102000414141E3
:10FF4B007F040201020440404040400003070800C8
:10FF5B0020545438407F284444383844444428388B
:10FF6B004444287F385454541800087E09020C521C
:10FF7B00524A3C7F0804047800447D4000204040F6
:10FF8B003D007F1028440000417F40007C04780432
:10FF9B00787C0804047838444444387C18242418AA
:10FFAB00182424187C7C0804040848545454240452
:10FFBB00043F44243C4040207C1C2040201C3C40FF
:10FFCB0030403C44281028444C5050503C4464541E
:10FFDB004C44000836410000007700000041360811
:10FFEB0000020102040248656C6C6F20576F726C43
:04FFFB00642100007D
:020000040020DA
:08000000FFFFFFFFFFFFFFFF00
:020000040030CA
:0E000000FF28193CFFBD80FF0FC00FE00F402E
:00000001FF
