:04000000BBEF7FF0E3
:10FF76000001BEEF7FF0D1EC7FF08C80D00E016ED9
:10FF8600CA0EE82EFED7012EFCD78C90D00E016E3D
:10FF9600CA0EE82EFED7012EFCD7EFD7D388D38A18
:10FFA600D38C9B8CF29E000E0F01386F000E396FBA
:10FFB600000E3A6F000E3B6F000E3C6F000E926E05
:10FFC600000E936E000E946E000E956E000E966EE9
:10FFD600000E806E000E816E000E826E000E836E25
:10FFE600000E846E000E896E000E8A6E000E8B6EF9
:0AFFF600000E8C6E000E8D6E1200DE
:020000040020DA
:08000000FFFFFFFFFFFFFFFF00
:020000040030CA
:0E000000FF28193CFFBD80FF0FC00FE00F402E
:00000001FF
