:04000000F7EF7EF0A8
:10FDEE0000013DEF7FF007EC7FF0C580120007ECBD
:10FDFE007FF0C584120007EC7FF002C0C9FF12002D
:10FE0E00C7B4FED7C5CF01F01F0E0116D8B412002D
:10FE1E00F7D7280EC66E000EC56E000E016E900E40
:10FE2E00026ED00E036E030E046E0EC012F00FC0E3
:10FE3E0013F010C014F011C015F0020ED890123647
:10FE4E00133614361536E82EF9D712C005F013C046
:10FE5E0006F014C007F015C008F078EC7FF001042E
:10FE6E00C86E000EC76E948694881200B9EC7FF0AF
:10FE7E00FAEC7EF0000E036E3C0E026E02EC7FF08A
:10FE8E00000E036E690E026E02EC7FF0FEEC7EF049
:10FE9E00090E196E1E0E186EE40EE82EFED7182EE1
:10FEAE00FCD7192EFAD700D0FAEC7EF0000E036EB6
:10FEBE003C0E026E02EC7FF0000E036E690E026EB7
:10FECE0002EC7FF0FEEC7EF0090E196E1E0E186E1F
:10FEDE00E40EE82EFED7182EFCD7192EFAD700D036
:10FEEE00D7D7000E096E000E0A6E000E0B6E000EB6
:10FEFE000C6E0550061007100810D8B42AD0010E4B
:10FF0E000D6E06D0D89005360636073608360D2A01
:10FF1E0008AEF8D7D89009360A360B360C3605508F
:10FF2E00015C065002580750035808500458D8A0D8
:10FF3E0009D00550015E0650025A0750035A085068
:10FF4E00045A0980D89008320732063205320D2E37
:10FF5E00E1D709C001F00AC002F00BC003F00CC0DB
:10FF6E0004F01200D388D38AD38C9B8CF29E000EA1
:10FF7E000F01386F000E396F000E3A6F000E3B6F97
:10FF8E00000E3C6F000E926E000E936E000E946E7D
:10FF9E00000E956E000E966E000E806E000E816E37
:10FFAE00000E826E000E836E000E846E000E896E41
:10FFBE00000E8A6E000E8B6E000E8C6E000E8D6E15
:10FFCE0094869488A00E0E6E860E0F6E010E106E25
:10FFDE00000E116E10EC7FF0090E176E1E0E166ECF
:10FFEE00E40EE82EFED7162EFCD7172EFAD700D029
:02FFFE001200EF
:020000040020DA
:08000000FFFFFFFFFFFFFFFF00
:020000040030CA
:0E000000FF28193CFFBD80FF0FC00FE00F402E
:00000001FF
